{
  "contractName": "MultiSigWallet",
  "abi": [
    {
      "inputs": [
        {
          "internalType": "address[]",
          "name": "_owners",
          "type": "address[]"
        },
        {
          "internalType": "uint256",
          "name": "_necessaryApprovals",
          "type": "uint256"
        }
      ],
      "stateMutability": "nonpayable",
      "type": "constructor"
    },
    {
      "anonymous": false,
      "inputs": [],
      "name": "TransactionAdded",
      "type": "event"
    },
    {
      "anonymous": false,
      "inputs": [],
      "name": "TransactionApproved",
      "type": "event"
    },
    {
      "inputs": [],
      "name": "currentFundId",
      "outputs": [
        {
          "internalType": "uint256",
          "name": "",
          "type": "uint256"
        }
      ],
      "stateMutability": "view",
      "type": "function"
    },
    {
      "inputs": [],
      "name": "currentTransactionId",
      "outputs": [
        {
          "internalType": "uint256",
          "name": "",
          "type": "uint256"
        }
      ],
      "stateMutability": "view",
      "type": "function"
    },
    {
      "inputs": [
        {
          "internalType": "uint256",
          "name": "",
          "type": "uint256"
        }
      ],
      "name": "funds",
      "outputs": [
        {
          "internalType": "address",
          "name": "from",
          "type": "address"
        },
        {
          "internalType": "uint256",
          "name": "value",
          "type": "uint256"
        },
        {
          "internalType": "uint256",
          "name": "timestamp",
          "type": "uint256"
        }
      ],
      "stateMutability": "view",
      "type": "function"
    },
    {
      "inputs": [],
      "name": "getOwners",
      "outputs": [
        {
          "internalType": "address[]",
          "name": "",
          "type": "address[]"
        }
      ],
      "stateMutability": "view",
      "type": "function"
    },
    {
      "inputs": [],
      "name": "necessaryApprovals",
      "outputs": [
        {
          "internalType": "uint256",
          "name": "",
          "type": "uint256"
        }
      ],
      "stateMutability": "view",
      "type": "function"
    },
    {
      "inputs": [
        {
          "internalType": "uint256",
          "name": "",
          "type": "uint256"
        }
      ],
      "name": "owners",
      "outputs": [
        {
          "internalType": "address",
          "name": "",
          "type": "address"
        }
      ],
      "stateMutability": "view",
      "type": "function"
    },
    {
      "inputs": [
        {
          "internalType": "uint256",
          "name": "",
          "type": "uint256"
        }
      ],
      "name": "transactions",
      "outputs": [
        {
          "internalType": "address",
          "name": "from",
          "type": "address"
        },
        {
          "internalType": "address payable",
          "name": "to",
          "type": "address"
        },
        {
          "internalType": "uint256",
          "name": "amount",
          "type": "uint256"
        },
        {
          "internalType": "uint256",
          "name": "timestamp",
          "type": "uint256"
        },
        {
          "internalType": "uint256",
          "name": "approvalCount",
          "type": "uint256"
        },
        {
          "internalType": "bool",
          "name": "isApproved",
          "type": "bool"
        },
        {
          "internalType": "bool",
          "name": "isProcessed",
          "type": "bool"
        }
      ],
      "stateMutability": "view",
      "type": "function"
    },
    {
      "inputs": [
        {
          "internalType": "address payable",
          "name": "_to",
          "type": "address"
        },
        {
          "internalType": "uint256",
          "name": "_amount",
          "type": "uint256"
        }
      ],
      "name": "addTransaction",
      "outputs": [],
      "stateMutability": "nonpayable",
      "type": "function"
    },
    {
      "inputs": [
        {
          "internalType": "uint256",
          "name": "_transactionId",
          "type": "uint256"
        }
      ],
      "name": "approveTransaction",
      "outputs": [],
      "stateMutability": "nonpayable",
      "type": "function"
    },
    {
      "inputs": [
        {
          "internalType": "uint256",
          "name": "_transactionId",
          "type": "uint256"
        },
        {
          "internalType": "address",
          "name": "_sender",
          "type": "address"
        }
      ],
      "name": "executeTransaction",
      "outputs": [],
      "stateMutability": "payable",
      "type": "function"
    },
    {
      "inputs": [],
      "name": "addFund",
      "outputs": [],
      "stateMutability": "payable",
      "type": "function"
    }
  ],
  "bytecode": "0x60806040523480156200001157600080fd5b5060405162001788380380620017888339818101604052810190620000379190620003d4565b8160005b81518110156200014f5760008282815181106200005d576200005c6200043a565b5b60200260200101519080600181540180825580915050600190039060005260206000200160009091909190916101000a81548173ffffffffffffffffffffffffffffffffffffffff021916908373ffffffffffffffffffffffffffffffffffffffff1602179055506001806000848481518110620000e057620000df6200043a565b5b602002602001015173ffffffffffffffffffffffffffffffffffffffff1673ffffffffffffffffffffffffffffffffffffffff16815260200190815260200160002060006101000a81548160ff0219169083151502179055508080620001469062000498565b9150506200003b565b5050818180825110156200019a576040517f08c379a0000000000000000000000000000000000000000000000000000000008152600401620001919062000593565b60405180910390fd5b8260028190555050505050620005b5565b6000604051905090565b600080fd5b600080fd5b600080fd5b6000601f19601f8301169050919050565b7f4e487b7100000000000000000000000000000000000000000000000000000000600052604160045260246000fd5b6200020f82620001c4565b810181811067ffffffffffffffff82111715620002315762000230620001d5565b5b80604052505050565b600062000246620001ab565b905062000254828262000204565b919050565b600067ffffffffffffffff821115620002775762000276620001d5565b5b602082029050602081019050919050565b600080fd5b600073ffffffffffffffffffffffffffffffffffffffff82169050919050565b6000620002ba826200028d565b9050919050565b620002cc81620002ad565b8114620002d857600080fd5b50565b600081519050620002ec81620002c1565b92915050565b600062000309620003038462000259565b6200023a565b905080838252602082019050602084028301858111156200032f576200032e62000288565b5b835b818110156200035c5780620003478882620002db565b84526020840193505060208101905062000331565b5050509392505050565b600082601f8301126200037e576200037d620001bf565b5b815162000390848260208601620002f2565b91505092915050565b6000819050919050565b620003ae8162000399565b8114620003ba57600080fd5b50565b600081519050620003ce81620003a3565b92915050565b60008060408385031215620003ee57620003ed620001b5565b5b600083015167ffffffffffffffff8111156200040f576200040e620001ba565b5b6200041d8582860162000366565b92505060206200043085828601620003bd565b9150509250929050565b7f4e487b7100000000000000000000000000000000000000000000000000000000600052603260045260246000fd5b7f4e487b7100000000000000000000000000000000000000000000000000000000600052601160045260246000fd5b6000620004a58262000399565b91507fffffffffffffffffffffffffffffffffffffffffffffffffffffffffffffffff821415620004db57620004da62000469565b5b600182019050919050565b600082825260208201905092915050565b7f546865206e756d626572206f6620617070726f76616c73206d757374206d652060008201527f657175616c206f72206c657373207468616e20746865206c656e677468206f6660208201527f206f776e65727300000000000000000000000000000000000000000000000000604082015250565b60006200057b604783620004e6565b91506200058882620004f7565b606082019050919050565b60006020820190508181036000830152620005ae816200056c565b9050919050565b6111c380620005c56000396000f3fe60806040526004361061009c5760003560e01c80637b8e8895116100645780637b8e88951461017957806384a37273146101b85780638596ccc7146101e15780639ace38c21461020c578063a0e67e2b1461024f578063a2f09dfa1461027a5761009c565b8063025e7c27146100a1578063242232d1146100de57806329ba8780146101075780632a698f5e1461012357806352b422b71461014e575b600080fd5b3480156100ad57600080fd5b506100c860048036038101906100c39190610b29565b610284565b6040516100d59190610b97565b60405180910390f35b3480156100ea57600080fd5b5061010560048036038101906101009190610b29565b6102c3565b005b610121600480360381019061011c9190610bde565b6104f4565b005b34801561012f57600080fd5b50610138610778565b6040516101459190610c2d565b60405180910390f35b34801561015a57600080fd5b5061016361077e565b6040516101709190610c2d565b60405180910390f35b34801561018557600080fd5b506101a0600480360381019061019b9190610b29565b610784565b6040516101af93929190610c48565b60405180910390f35b3480156101c457600080fd5b506101df60048036038101906101da9190610cbd565b6107ce565b005b3480156101ed57600080fd5b506101f6610913565b6040516102039190610c2d565b60405180910390f35b34801561021857600080fd5b50610233600480360381019061022e9190610b29565b610919565b6040516102469796959493929190610d27565b60405180910390f35b34801561025b57600080fd5b506102646109b5565b6040516102719190610e54565b60405180910390f35b610282610a43565b005b6000818154811061029457600080fd5b906000526020600020016000915054906101000a900473ffffffffffffffffffffffffffffffffffffffff1681565b3360011515600160008373ffffffffffffffffffffffffffffffffffffffff1673ffffffffffffffffffffffffffffffffffffffff16815260200190815260200160002060009054906101000a900460ff16151514610357576040517f08c379a000000000000000000000000000000000000000000000000000000000815260040161034e90610ed3565b60405180910390fd5b3382600015156003600083815260200190815260200160002060040160008473ffffffffffffffffffffffffffffffffffffffff1673ffffffffffffffffffffffffffffffffffffffff16815260200190815260200160002060009054906101000a900460ff16151514610400576040517f08c379a00000000000000000000000000000000000000000000000000000000081526004016103f790610f65565b60405180910390fd5b60016003600086815260200190815260200160002060040160003373ffffffffffffffffffffffffffffffffffffffff1673ffffffffffffffffffffffffffffffffffffffff16815260200190815260200160002060006101000a81548160ff02191690831515021790555060036000858152602001908152602001600020600501600081548092919061049390610fb4565b91905055506002546003600086815260200190815260200160002060050154106104c2576104c184336104f4565b5b7f791d1b6706766071f23c458b8ce7cdc21b5865086aa4ba0f23eb5f28fb3ce39b60405160405180910390a150505050565b8060011515600160008373ffffffffffffffffffffffffffffffffffffffff1673ffffffffffffffffffffffffffffffffffffffff16815260200190815260200160002060009054906101000a900460ff16151514610588576040517f08c379a000000000000000000000000000000000000000000000000000000000815260040161057f90610ed3565b60405180910390fd5b60036000848152602001908152602001600020600201546000479050808211156105e7576040517f08c379a00000000000000000000000000000000000000000000000000000000081526004016105de9061106f565b60405180910390fd5b8460025460036000838152602001908152602001600020600501541015610643576040517f08c379a000000000000000000000000000000000000000000000000000000000815260040161063a90611101565b60405180910390fd5b85600015156003600083815260200190815260200160002060060160019054906101000a900460ff161515146106ae576040517f08c379a00000000000000000000000000000000000000000000000000000000081526004016106a59061116d565b60405180910390fd5b600060036000898152602001908152602001600020905060018160060160006101000a81548160ff02191690831515021790555060018160060160016101000a81548160ff0219169083151502179055508060010160009054906101000a900473ffffffffffffffffffffffffffffffffffffffff1673ffffffffffffffffffffffffffffffffffffffff166108fc82600201549081150290604051600060405180830381858888f1935050505015801561076d573d6000803e3d6000fd5b505050505050505050565b60065481565b60045481565b60056020528060005260406000206000915090508060000160009054906101000a900473ffffffffffffffffffffffffffffffffffffffff16908060010154908060020154905083565b80600047905080821115610817576040517f08c379a000000000000000000000000000000000000000000000000000000000815260040161080e9061106f565b60405180910390fd5b60006003600060045481526020019081526020016000209050338160000160006101000a81548173ffffffffffffffffffffffffffffffffffffffff021916908373ffffffffffffffffffffffffffffffffffffffff160217905550848160010160006101000a81548173ffffffffffffffffffffffffffffffffffffffff021916908373ffffffffffffffffffffffffffffffffffffffff160217905550838160020181905550428160030181905550600460008154809291906108db90610fb4565b91905055507f365467a2bbbe7f515555b933750a920d7eae1ed3803da92fbafb635addfc3c1e60405160405180910390a15050505050565b60025481565b60036020528060005260406000206000915090508060000160009054906101000a900473ffffffffffffffffffffffffffffffffffffffff16908060010160009054906101000a900473ffffffffffffffffffffffffffffffffffffffff16908060020154908060030154908060050154908060060160009054906101000a900460ff16908060060160019054906101000a900460ff16905087565b60606000805480602002602001604051908101604052809291908181526020018280548015610a3957602002820191906000526020600020905b8160009054906101000a900473ffffffffffffffffffffffffffffffffffffffff1673ffffffffffffffffffffffffffffffffffffffff16815260200190600101908083116109ef575b5050505050905090565b34600560006006548152602001908152602001600020600101819055503360056000600654815260200190815260200160002060000160006101000a81548173ffffffffffffffffffffffffffffffffffffffff021916908373ffffffffffffffffffffffffffffffffffffffff160217905550426005600060065481526020019081526020016000206002018190555060066000815480929190610ae790610fb4565b9190505550565b600080fd5b6000819050919050565b610b0681610af3565b8114610b1157600080fd5b50565b600081359050610b2381610afd565b92915050565b600060208284031215610b3f57610b3e610aee565b5b6000610b4d84828501610b14565b91505092915050565b600073ffffffffffffffffffffffffffffffffffffffff82169050919050565b6000610b8182610b56565b9050919050565b610b9181610b76565b82525050565b6000602082019050610bac6000830184610b88565b92915050565b610bbb81610b76565b8114610bc657600080fd5b50565b600081359050610bd881610bb2565b92915050565b60008060408385031215610bf557610bf4610aee565b5b6000610c0385828601610b14565b9250506020610c1485828601610bc9565b9150509250929050565b610c2781610af3565b82525050565b6000602082019050610c426000830184610c1e565b92915050565b6000606082019050610c5d6000830186610b88565b610c6a6020830185610c1e565b610c776040830184610c1e565b949350505050565b6000610c8a82610b56565b9050919050565b610c9a81610c7f565b8114610ca557600080fd5b50565b600081359050610cb781610c91565b92915050565b60008060408385031215610cd457610cd3610aee565b5b6000610ce285828601610ca8565b9250506020610cf385828601610b14565b9150509250929050565b610d0681610c7f565b82525050565b60008115159050919050565b610d2181610d0c565b82525050565b600060e082019050610d3c600083018a610b88565b610d496020830189610cfd565b610d566040830188610c1e565b610d636060830187610c1e565b610d706080830186610c1e565b610d7d60a0830185610d18565b610d8a60c0830184610d18565b98975050505050505050565b600081519050919050565b600082825260208201905092915050565b6000819050602082019050919050565b610dcb81610b76565b82525050565b6000610ddd8383610dc2565b60208301905092915050565b6000602082019050919050565b6000610e0182610d96565b610e0b8185610da1565b9350610e1683610db2565b8060005b83811015610e47578151610e2e8882610dd1565b9750610e3983610de9565b925050600181019050610e1a565b5085935050505092915050565b60006020820190508181036000830152610e6e8184610df6565b905092915050565b600082825260208201905092915050565b7f596f7520617265206e6f74206f6e65206f6620746865206f776e657273000000600082015250565b6000610ebd601d83610e76565b9150610ec882610e87565b602082019050919050565b60006020820190508181036000830152610eec81610eb0565b9050919050565b7f596f7520616c726561647920617070726f76656420746865207472616e73616360008201527f74696f6e00000000000000000000000000000000000000000000000000000000602082015250565b6000610f4f602483610e76565b9150610f5a82610ef3565b604082019050919050565b60006020820190508181036000830152610f7e81610f42565b9050919050565b7f4e487b7100000000000000000000000000000000000000000000000000000000600052601160045260246000fd5b6000610fbf82610af3565b91507fffffffffffffffffffffffffffffffffffffffffffffffffffffffffffffffff821415610ff257610ff1610f85565b5b600182019050919050565b7f5472616e73616374696f6e20616d6f756e74206578636565647320636f6e747260008201527f616374732062616c616e63650000000000000000000000000000000000000000602082015250565b6000611059602c83610e76565b915061106482610ffd565b604082019050919050565b600060208201905081810360008301526110888161104c565b9050919050565b7f4e656365737361727920617070726f76616c7320617265206e6f74207265616360008201527f6865640000000000000000000000000000000000000000000000000000000000602082015250565b60006110eb602383610e76565b91506110f68261108f565b604082019050919050565b6000602082019050818103600083015261111a816110de565b9050919050565b7f446f75626c65207370656e64696e67206973206e6f7420616c6c6f7765640000600082015250565b6000611157601e83610e76565b915061116282611121565b602082019050919050565b600060208201905081810360008301526111868161114a565b905091905056fea26469706673582212205eadea7bf8cb59ded1d479f7200d427658c95b82e322f0e10ee17c9f09a5015564736f6c63430008090033",
  "immutableReferences": {},
  "source": "// SPDX-License-Identifier: MIT\n\npragma solidity ^0.8.0;\n\nimport \"./MultipleOwners.sol\";\n\ncontract MultiSigWallet is MultipleOwners {\n    uint256 public necessaryApprovals;\n\n    mapping(uint256 => Transaction) public transactions;\n    uint256 public currentTransactionId;\n\n    mapping(uint256 => Fund) public funds;\n    uint256 public currentFundId;\n\n\n    struct Fund {\n        address from;\n        uint256 value;\n        uint256 timestamp;\n    }\n\n    struct Transaction {\n        address from;\n        address payable to;\n        uint256 amount;\n        uint256 timestamp;\n        mapping(address => bool) hasApproved;\n        uint256 approvalCount;\n        bool isApproved;\n        bool isProcessed;\n    }\n\n    modifier constructorGuard(\n        address[] memory _owners,\n        uint256 _necessaryApprovals\n    ) {\n        require(\n            _owners.length >= _necessaryApprovals,\n            \"The number of approvals must me equal or less than the length of owners\"\n        );\n        _;\n    }\n\n    modifier singleApprovalGuard(address _sender, uint256 transactionId) {\n        require(\n            transactions[transactionId].hasApproved[_sender] == false,\n            \"You already approved the transaction\"\n        );\n        _;\n    }\n\n    modifier approvalGuard(uint256 _transactionId) {\n        require(\n            transactions[_transactionId].approvalCount >= necessaryApprovals,\n            \"Necessary approvals are not reached\"\n        );\n        _;\n    }\n\n    modifier processedGuard(uint256 _transactionId) {\n        require(\n            transactions[_transactionId].isProcessed == false,\n            \"Double spending is not allowed\"\n        );\n        _;\n    }\n\n    modifier balanceGuard(uint256 _amount) {\n        uint256 contractBalance = address(this).balance;\n        require(\n            _amount <= contractBalance,\n            \"Transaction amount exceeds contracts balance\"\n        );\n        _;\n    }\n\n    event TransactionAdded();\n    event TransactionApproved();\n\n\n    constructor(address[] memory _owners, uint256 _necessaryApprovals)\n    MultipleOwners(_owners)\n    constructorGuard(_owners, _necessaryApprovals)\n    {\n        necessaryApprovals = _necessaryApprovals;\n    }\n\n    function addTransaction(address payable _to, uint256 _amount)\n    public\n    balanceGuard(_amount)\n    {\n        Transaction storage transaction = transactions[currentTransactionId];\n\n        transaction.from = msg.sender;\n        transaction.to = _to;\n        transaction.amount = _amount;\n        transaction.timestamp = block.timestamp;\n\n        currentTransactionId++;\n\n        emit TransactionAdded();\n    }\n\n    function approveTransaction(uint256 _transactionId)\n    public\n    onlyOwner(msg.sender)\n    singleApprovalGuard(msg.sender, _transactionId)\n    {\n        transactions[_transactionId].hasApproved[msg.sender] = true;\n        transactions[_transactionId].approvalCount++;\n\n        if (transactions[_transactionId].approvalCount >= necessaryApprovals) {\n            executeTransaction(_transactionId, msg.sender);\n        }\n        emit TransactionApproved();\n    }\n\n    function executeTransaction(uint256 _transactionId, address _sender)\n    public\n    payable\n    onlyOwner(_sender)\n    balanceGuard(transactions[_transactionId].amount)\n    approvalGuard(_transactionId)\n    processedGuard(_transactionId)\n    {\n        Transaction storage transaction = transactions[_transactionId];\n\n        transaction.isApproved = true;\n        transaction.isProcessed = true;\n        transaction.to.transfer(transaction.amount);\n    }\n\n    function addFund() payable public {\n        funds[currentFundId].value = msg.value;\n        funds[currentFundId].from = msg.sender;\n        funds[currentFundId].timestamp = block.timestamp;\n        currentFundId++;\n    }\n\n\n}\n",
  "sourcePath": "/Users/alexplutta/Dev/BC/MultiSigWallet/contracts/MultiSigWallet.sol",
  "compiler": {
    "name": "solc",
    "version": "0.8.9+commit.e5eed63a.Emscripten.clang"
  },
  "schemaVersion": "3.4.1",
  "updatedAt": "2021-11-02T14:23:03.250Z",
  "devdoc": {
    "kind": "dev",
    "methods": {},
    "version": 1
  },
  "userdoc": {
    "kind": "user",
    "methods": {},
    "version": 1
  }
}