{
  "contractName": "MultiSigWallet",
  "abi": [
    {
      "inputs": [
        {
          "internalType": "address[]",
          "name": "_owners",
          "type": "address[]"
        },
        {
          "internalType": "uint256",
          "name": "_necessaryApprovals",
          "type": "uint256"
        }
      ],
      "stateMutability": "nonpayable",
      "type": "constructor"
    },
    {
      "inputs": [],
      "name": "currentTransactionId",
      "outputs": [
        {
          "internalType": "uint256",
          "name": "",
          "type": "uint256"
        }
      ],
      "stateMutability": "view",
      "type": "function",
      "constant": true
    },
    {
      "inputs": [],
      "name": "necessaryApprovals",
      "outputs": [
        {
          "internalType": "uint256",
          "name": "",
          "type": "uint256"
        }
      ],
      "stateMutability": "view",
      "type": "function",
      "constant": true
    },
    {
      "inputs": [
        {
          "internalType": "uint256",
          "name": "",
          "type": "uint256"
        }
      ],
      "name": "owners",
      "outputs": [
        {
          "internalType": "address",
          "name": "",
          "type": "address"
        }
      ],
      "stateMutability": "view",
      "type": "function",
      "constant": true
    },
    {
      "inputs": [
        {
          "internalType": "uint256",
          "name": "",
          "type": "uint256"
        }
      ],
      "name": "transactions",
      "outputs": [
        {
          "internalType": "address",
          "name": "from",
          "type": "address"
        },
        {
          "internalType": "address payable",
          "name": "to",
          "type": "address"
        },
        {
          "internalType": "uint256",
          "name": "ammount",
          "type": "uint256"
        },
        {
          "internalType": "uint256",
          "name": "timestamp",
          "type": "uint256"
        },
        {
          "internalType": "uint256",
          "name": "approvalCount",
          "type": "uint256"
        },
        {
          "internalType": "bool",
          "name": "isApproved",
          "type": "bool"
        },
        {
          "internalType": "bool",
          "name": "isProccesed",
          "type": "bool"
        }
      ],
      "stateMutability": "view",
      "type": "function",
      "constant": true
    },
    {
      "stateMutability": "payable",
      "type": "receive",
      "payable": true
    },
    {
      "inputs": [
        {
          "internalType": "address payable",
          "name": "_to",
          "type": "address"
        },
        {
          "internalType": "uint256",
          "name": "_ammount",
          "type": "uint256"
        }
      ],
      "name": "addTransaction",
      "outputs": [],
      "stateMutability": "nonpayable",
      "type": "function"
    },
    {
      "inputs": [
        {
          "internalType": "uint256",
          "name": "_transactionId",
          "type": "uint256"
        }
      ],
      "name": "approveTransaction",
      "outputs": [],
      "stateMutability": "nonpayable",
      "type": "function"
    },
    {
      "inputs": [
        {
          "internalType": "uint256",
          "name": "_transactionId",
          "type": "uint256"
        },
        {
          "internalType": "address",
          "name": "_sender",
          "type": "address"
        }
      ],
      "name": "exectueTransaction",
      "outputs": [],
      "stateMutability": "payable",
      "type": "function",
      "payable": true
    }
  ],
  "bytecode": "0x60806040523480156200001157600080fd5b50604051620013d7380380620013d7833981810160405281019062000037919062000287565b8160005b81518110156200014f5760008282815181106200005d576200005c62000490565b5b60200260200101519080600181540180825580915050600190039060005260206000200160009091909190916101000a81548173ffffffffffffffffffffffffffffffffffffffff021916908373ffffffffffffffffffffffffffffffffffffffff1602179055506001806000848481518110620000e057620000df62000490565b5b602002602001015173ffffffffffffffffffffffffffffffffffffffff1673ffffffffffffffffffffffffffffffffffffffff16815260200190815260200160002060006101000a81548160ff0219169083151502179055508080620001469062000413565b9150506200003b565b5050818180825110156200019a576040517f08c379a0000000000000000000000000000000000000000000000000000000008152600401620001919062000314565b60405180910390fd5b8260028190555050505050620005bc565b6000620001c2620001bc846200035f565b62000336565b90508083825260208201905082856020860282011115620001e857620001e7620004f3565b5b60005b858110156200021c578162000201888262000226565b845260208401935060208301925050600181019050620001eb565b5050509392505050565b600081519050620002378162000588565b92915050565b600082601f830112620002555762000254620004ee565b5b815162000267848260208601620001ab565b91505092915050565b6000815190506200028181620005a2565b92915050565b60008060408385031215620002a157620002a0620004fd565b5b600083015167ffffffffffffffff811115620002c257620002c1620004f8565b5b620002d0858286016200023d565b9250506020620002e38582860162000270565b9150509250929050565b6000620002fc6047836200038e565b9150620003098262000513565b606082019050919050565b600060208201905081810360008301526200032f81620002ed565b9050919050565b60006200034262000355565b9050620003508282620003dd565b919050565b6000604051905090565b600067ffffffffffffffff8211156200037d576200037c620004bf565b5b602082029050602081019050919050565b600082825260208201905092915050565b6000620003ac82620003b3565b9050919050565b600073ffffffffffffffffffffffffffffffffffffffff82169050919050565b6000819050919050565b620003e88262000502565b810181811067ffffffffffffffff821117156200040a5762000409620004bf565b5b80604052505050565b60006200042082620003d3565b91507fffffffffffffffffffffffffffffffffffffffffffffffffffffffffffffffff82141562000456576200045562000461565b5b600182019050919050565b7f4e487b7100000000000000000000000000000000000000000000000000000000600052601160045260246000fd5b7f4e487b7100000000000000000000000000000000000000000000000000000000600052603260045260246000fd5b7f4e487b7100000000000000000000000000000000000000000000000000000000600052604160045260246000fd5b600080fd5b600080fd5b600080fd5b600080fd5b6000601f19601f8301169050919050565b7f546865206e756d626572206f6620617070726f76616c73206d757374206d652060008201527f657175616c206f72206c657373207468616e20746865206c656e677468206f6660208201527f206f776e65727300000000000000000000000000000000000000000000000000604082015250565b62000593816200039f565b81146200059f57600080fd5b50565b620005ad81620003d3565b8114620005b957600080fd5b50565b610e0b80620005cc6000396000f3fe6080604052600436106100745760003560e01c806384a372731161004e57806384a37273146101115780638596ccc71461013a5780639ace38c214610165578063ae208843146101a85761007b565b8063025e7c2714610080578063242232d1146100bd57806352b422b7146100e65761007b565b3661007b57005b600080fd5b34801561008c57600080fd5b506100a760048036038101906100a291906108cc565b6101c4565b6040516100b49190610a24565b60405180910390f35b3480156100c957600080fd5b506100e460048036038101906100df91906108cc565b610203565b005b3480156100f257600080fd5b506100fb610408565b6040516101089190610b4e565b60405180910390f35b34801561011d57600080fd5b506101386004803603810190610133919061088c565b61040e565b005b34801561014657600080fd5b5061014f610527565b60405161015c9190610b4e565b60405180910390f35b34801561017157600080fd5b5061018c600480360381019061018791906108cc565b61052d565b60405161019f9796959493929190610a3f565b60405180910390f35b6101c260048036038101906101bd91906108f9565b6105c9565b005b600081815481106101d457600080fd5b906000526020600020016000915054906101000a900473ffffffffffffffffffffffffffffffffffffffff1681565b3360011515600160008373ffffffffffffffffffffffffffffffffffffffff1673ffffffffffffffffffffffffffffffffffffffff16815260200190815260200160002060009054906101000a900460ff16151514610297576040517f08c379a000000000000000000000000000000000000000000000000000000000815260040161028e90610aee565b60405180910390fd5b3382600015156003600083815260200190815260200160002060040160008473ffffffffffffffffffffffffffffffffffffffff1673ffffffffffffffffffffffffffffffffffffffff16815260200190815260200160002060009054906101000a900460ff16151514610340576040517f08c379a000000000000000000000000000000000000000000000000000000000815260040161033790610ace565b60405180910390fd5b60016003600086815260200190815260200160002060040160003373ffffffffffffffffffffffffffffffffffffffff1673ffffffffffffffffffffffffffffffffffffffff16815260200190815260200160002060006101000a81548160ff0219169083151502179055506003600085815260200190815260200160002060050160008154809291906103d390610bd4565b91905055506002546003600086815260200190815260200160002060050154106104025761040184336105c9565b5b50505050565b60045481565b80600047905080821115610457576040517f08c379a000000000000000000000000000000000000000000000000000000000815260040161044e90610b0e565b60405180910390fd5b60006003600060045481526020019081526020016000209050338160000160006101000a81548173ffffffffffffffffffffffffffffffffffffffff021916908373ffffffffffffffffffffffffffffffffffffffff160217905550848160010160006101000a81548173ffffffffffffffffffffffffffffffffffffffff021916908373ffffffffffffffffffffffffffffffffffffffff1602179055508381600201819055504281600301819055506004600081548092919061051b90610bd4565b91905055505050505050565b60025481565b60036020528060005260406000206000915090508060000160009054906101000a900473ffffffffffffffffffffffffffffffffffffffff16908060010160009054906101000a900473ffffffffffffffffffffffffffffffffffffffff16908060020154908060030154908060050154908060060160009054906101000a900460ff16908060060160019054906101000a900460ff16905087565b8060011515600160008373ffffffffffffffffffffffffffffffffffffffff1673ffffffffffffffffffffffffffffffffffffffff16815260200190815260200160002060009054906101000a900460ff1615151461065d576040517f08c379a000000000000000000000000000000000000000000000000000000000815260040161065490610aee565b60405180910390fd5b60036000848152602001908152602001600020600201546000479050808211156106bc576040517f08c379a00000000000000000000000000000000000000000000000000000000081526004016106b390610b0e565b60405180910390fd5b8460025460036000838152602001908152602001600020600501541015610718576040517f08c379a000000000000000000000000000000000000000000000000000000000815260040161070f90610b2e565b60405180910390fd5b85600015156003600083815260200190815260200160002060060160019054906101000a900460ff16151514610783576040517f08c379a000000000000000000000000000000000000000000000000000000000815260040161077a90610aae565b60405180910390fd5b600060036000898152602001908152602001600020905060018160060160006101000a81548160ff02191690831515021790555060018160060160016101000a81548160ff0219169083151502179055508060010160009054906101000a900473ffffffffffffffffffffffffffffffffffffffff1673ffffffffffffffffffffffffffffffffffffffff166108fc82600201549081150290604051600060405180830381858888f19350505050158015610842573d6000803e3d6000fd5b505050505050505050565b60008135905061085c81610d90565b92915050565b60008135905061087181610da7565b92915050565b60008135905061088681610dbe565b92915050565b600080604083850312156108a3576108a2610c4c565b5b60006108b185828601610862565b92505060206108c285828601610877565b9150509250929050565b6000602082840312156108e2576108e1610c4c565b5b60006108f084828501610877565b91505092915050565b600080604083850312156109105761090f610c4c565b5b600061091e85828601610877565b925050602061092f8582860161084d565b9150509250929050565b61094281610b8c565b82525050565b61095181610b7a565b82525050565b61096081610b9e565b82525050565b6000610973601e83610b69565b915061097e82610c51565b602082019050919050565b6000610996602483610b69565b91506109a182610c7a565b604082019050919050565b60006109b9601d83610b69565b91506109c482610cc9565b602082019050919050565b60006109dc602d83610b69565b91506109e782610cf2565b604082019050919050565b60006109ff602383610b69565b9150610a0a82610d41565b604082019050919050565b610a1e81610bca565b82525050565b6000602082019050610a396000830184610948565b92915050565b600060e082019050610a54600083018a610948565b610a616020830189610939565b610a6e6040830188610a15565b610a7b6060830187610a15565b610a886080830186610a15565b610a9560a0830185610957565b610aa260c0830184610957565b98975050505050505050565b60006020820190508181036000830152610ac781610966565b9050919050565b60006020820190508181036000830152610ae781610989565b9050919050565b60006020820190508181036000830152610b07816109ac565b9050919050565b60006020820190508181036000830152610b27816109cf565b9050919050565b60006020820190508181036000830152610b47816109f2565b9050919050565b6000602082019050610b636000830184610a15565b92915050565b600082825260208201905092915050565b6000610b8582610baa565b9050919050565b6000610b9782610baa565b9050919050565b60008115159050919050565b600073ffffffffffffffffffffffffffffffffffffffff82169050919050565b6000819050919050565b6000610bdf82610bca565b91507fffffffffffffffffffffffffffffffffffffffffffffffffffffffffffffffff821415610c1257610c11610c1d565b5b600182019050919050565b7f4e487b7100000000000000000000000000000000000000000000000000000000600052601160045260246000fd5b600080fd5b7f446f75626c65207370656e64696e67206973206e6f7420616c6c6f7765640000600082015250565b7f596f7520616c726561647920617070726f76656420746865207472616e73616360008201527f74696f6e00000000000000000000000000000000000000000000000000000000602082015250565b7f596f7520617265206e6f74206f6e65206f6620746865206f776e657273000000600082015250565b7f5472616e63616374696f6e20616d6d6f756e74206578636565647320636f6e7460008201527f72616374732062616c616e636500000000000000000000000000000000000000602082015250565b7f4e656365737361727920617070726f76616c7320617265206e6f74207265616360008201527f6865640000000000000000000000000000000000000000000000000000000000602082015250565b610d9981610b7a565b8114610da457600080fd5b50565b610db081610b8c565b8114610dbb57600080fd5b50565b610dc781610bca565b8114610dd257600080fd5b5056fea2646970667358221220d01f1d58f9b24f3c7d44396650268b92d982f9b53efa8048fe97d5329be10e3564736f6c63430008050033",
  "immutableReferences": {},
  "source": "// SPDX-License-Identifier: MIT\n\npragma solidity ^0.8.0;\n\nimport \"./MultipleOwners.sol\";\n\ncontract MultiSigWallet is MultipleOwners {\n    uint256 public necessaryApprovals;\n\n    mapping(uint256 => Transaction) public transactions;\n    uint256 public currentTransactionId;\n\n    struct Transaction {\n        address from;\n        address payable to;\n        uint256 ammount;\n        uint256 timestamp;\n        mapping(address => bool) hasApproved;\n        uint256 approvalCount;\n        bool isApproved;\n        bool isProccesed;\n    }\n\n    modifier contructorGuard(\n        address[] memory _owners,\n        uint256 _necessaryApprovals\n    ) {\n        require(\n            _owners.length >= _necessaryApprovals,\n            \"The number of approvals must me equal or less than the length of owners\"\n        );\n        _;\n    }\n\n    modifier singleApprovalGuard(address _sender, uint256 transactionId) {\n        require(\n            transactions[transactionId].hasApproved[_sender] == false,\n            \"You already approved the transaction\"\n        );\n        _;\n    }\n\n    modifier approvalGuard(uint256 _transactionId) {\n        require(\n            transactions[_transactionId].approvalCount >= necessaryApprovals,\n            \"Necessary approvals are not reached\"\n        );\n        _;\n    }\n\n    modifier proccessedGuard(uint256 _transactionId) {\n        require(\n            transactions[_transactionId].isProccesed == false,\n            \"Double spending is not allowed\"\n        );\n        _;\n    }\n\n    modifier balanceGuard(uint256 _amount) {\n        uint256 contractBalance = address(this).balance;\n        require(\n            _amount <= contractBalance,\n            \"Trancaction ammount exceeds contracts balance\"\n        );\n        _;\n    }\n\n    constructor(address[] memory _owners, uint256 _necessaryApprovals)\n        MultipleOwners(_owners)\n        contructorGuard(_owners, _necessaryApprovals)\n    {\n        necessaryApprovals = _necessaryApprovals;\n    }\n\n    function addTransaction(address payable _to, uint256 _ammount)\n        public\n        balanceGuard(_ammount)\n    {\n        Transaction storage transaction = transactions[currentTransactionId];\n\n        transaction.from = msg.sender;\n        transaction.to = _to;\n        transaction.ammount = _ammount;\n        transaction.timestamp = block.timestamp;\n\n        currentTransactionId++;\n    }\n\n    function approveTransaction(uint256 _transactionId)\n        public\n        onlyOwner(msg.sender)\n        singleApprovalGuard(msg.sender, _transactionId)\n    {\n        transactions[_transactionId].hasApproved[msg.sender] = true;\n        transactions[_transactionId].approvalCount++;\n\n        if (transactions[_transactionId].approvalCount >= necessaryApprovals) {\n            exectueTransaction(_transactionId, msg.sender);\n        }\n    }\n\n    function exectueTransaction(uint256 _transactionId, address _sender)\n        public\n        payable\n        onlyOwner(_sender)\n        balanceGuard(transactions[_transactionId].ammount)\n        approvalGuard(_transactionId)\n        proccessedGuard(_transactionId)\n    {\n        Transaction storage transaction = transactions[_transactionId];\n\n        transaction.isApproved = true;\n        transaction.isProccesed = true;\n        transaction.to.transfer(transaction.ammount);\n    }\n\n    receive() external payable {}\n}\n",
  "sourcePath": "/Users/alexplutta/Dev/BC/MultiSigWallet/contracts/MultiSigWallet.sol",
  "compiler": {
    "name": "solc",
    "version": "0.8.5+commit.a4f2e591.Emscripten.clang"
  },
  "schemaVersion": "3.4.1",
  "updatedAt": "2021-06-21T21:07:46.007Z",
  "networkType": "ethereum",
  "devdoc": {
    "kind": "dev",
    "methods": {},
    "version": 1
  },
  "userdoc": {
    "kind": "user",
    "methods": {},
    "version": 1
  }
}