{
  "contractName": "MultiSigWallet",
  "abi": [
    {
      "inputs": [
        {
          "internalType": "address[]",
          "name": "_owners",
          "type": "address[]"
        },
        {
          "internalType": "uint256",
          "name": "_necessaryApprovals",
          "type": "uint256"
        }
      ],
      "stateMutability": "nonpayable",
      "type": "constructor"
    },
    {
      "inputs": [],
      "name": "currentFundId",
      "outputs": [
        {
          "internalType": "uint256",
          "name": "",
          "type": "uint256"
        }
      ],
      "stateMutability": "view",
      "type": "function"
    },
    {
      "inputs": [],
      "name": "currentTransactionId",
      "outputs": [
        {
          "internalType": "uint256",
          "name": "",
          "type": "uint256"
        }
      ],
      "stateMutability": "view",
      "type": "function"
    },
    {
      "inputs": [
        {
          "internalType": "uint256",
          "name": "",
          "type": "uint256"
        }
      ],
      "name": "funds",
      "outputs": [
        {
          "internalType": "address",
          "name": "from",
          "type": "address"
        },
        {
          "internalType": "uint256",
          "name": "value",
          "type": "uint256"
        },
        {
          "internalType": "uint256",
          "name": "timestamp",
          "type": "uint256"
        }
      ],
      "stateMutability": "view",
      "type": "function"
    },
    {
      "inputs": [],
      "name": "necessaryApprovals",
      "outputs": [
        {
          "internalType": "uint256",
          "name": "",
          "type": "uint256"
        }
      ],
      "stateMutability": "view",
      "type": "function"
    },
    {
      "inputs": [
        {
          "internalType": "uint256",
          "name": "",
          "type": "uint256"
        }
      ],
      "name": "owners",
      "outputs": [
        {
          "internalType": "address",
          "name": "",
          "type": "address"
        }
      ],
      "stateMutability": "view",
      "type": "function"
    },
    {
      "inputs": [
        {
          "internalType": "uint256",
          "name": "",
          "type": "uint256"
        }
      ],
      "name": "transactions",
      "outputs": [
        {
          "internalType": "address",
          "name": "from",
          "type": "address"
        },
        {
          "internalType": "address payable",
          "name": "to",
          "type": "address"
        },
        {
          "internalType": "uint256",
          "name": "ammount",
          "type": "uint256"
        },
        {
          "internalType": "uint256",
          "name": "timestamp",
          "type": "uint256"
        },
        {
          "internalType": "uint256",
          "name": "approvalCount",
          "type": "uint256"
        },
        {
          "internalType": "bool",
          "name": "isApproved",
          "type": "bool"
        },
        {
          "internalType": "bool",
          "name": "isProccesed",
          "type": "bool"
        }
      ],
      "stateMutability": "view",
      "type": "function"
    },
    {
      "inputs": [
        {
          "internalType": "address payable",
          "name": "_to",
          "type": "address"
        },
        {
          "internalType": "uint256",
          "name": "_ammount",
          "type": "uint256"
        }
      ],
      "name": "addTransaction",
      "outputs": [],
      "stateMutability": "nonpayable",
      "type": "function"
    },
    {
      "inputs": [
        {
          "internalType": "uint256",
          "name": "_transactionId",
          "type": "uint256"
        }
      ],
      "name": "approveTransaction",
      "outputs": [],
      "stateMutability": "nonpayable",
      "type": "function"
    },
    {
      "inputs": [
        {
          "internalType": "uint256",
          "name": "_transactionId",
          "type": "uint256"
        },
        {
          "internalType": "address",
          "name": "_sender",
          "type": "address"
        }
      ],
      "name": "executeTransaction",
      "outputs": [],
      "stateMutability": "payable",
      "type": "function"
    },
    {
      "inputs": [],
      "name": "addFund",
      "outputs": [],
      "stateMutability": "payable",
      "type": "function"
    }
  ],
  "bytecode": "0x60806040523480156200001157600080fd5b506040516200159338038062001593833981810160405281019062000037919062000287565b8160005b81518110156200014f5760008282815181106200005d576200005c62000490565b5b60200260200101519080600181540180825580915050600190039060005260206000200160009091909190916101000a81548173ffffffffffffffffffffffffffffffffffffffff021916908373ffffffffffffffffffffffffffffffffffffffff1602179055506001806000848481518110620000e057620000df62000490565b5b602002602001015173ffffffffffffffffffffffffffffffffffffffff1673ffffffffffffffffffffffffffffffffffffffff16815260200190815260200160002060006101000a81548160ff0219169083151502179055508080620001469062000413565b9150506200003b565b5050818180825110156200019a576040517f08c379a0000000000000000000000000000000000000000000000000000000008152600401620001919062000314565b60405180910390fd5b8260028190555050505050620005bc565b6000620001c2620001bc846200035f565b62000336565b90508083825260208201905082856020860282011115620001e857620001e7620004f3565b5b60005b858110156200021c578162000201888262000226565b845260208401935060208301925050600181019050620001eb565b5050509392505050565b600081519050620002378162000588565b92915050565b600082601f830112620002555762000254620004ee565b5b815162000267848260208601620001ab565b91505092915050565b6000815190506200028181620005a2565b92915050565b60008060408385031215620002a157620002a0620004fd565b5b600083015167ffffffffffffffff811115620002c257620002c1620004f8565b5b620002d0858286016200023d565b9250506020620002e38582860162000270565b9150509250929050565b6000620002fc6047836200038e565b9150620003098262000513565b606082019050919050565b600060208201905081810360008301526200032f81620002ed565b9050919050565b60006200034262000355565b9050620003508282620003dd565b919050565b6000604051905090565b600067ffffffffffffffff8211156200037d576200037c620004bf565b5b602082029050602081019050919050565b600082825260208201905092915050565b6000620003ac82620003b3565b9050919050565b600073ffffffffffffffffffffffffffffffffffffffff82169050919050565b6000819050919050565b620003e88262000502565b810181811067ffffffffffffffff821117156200040a5762000409620004bf565b5b80604052505050565b60006200042082620003d3565b91507fffffffffffffffffffffffffffffffffffffffffffffffffffffffffffffffff82141562000456576200045562000461565b5b600182019050919050565b7f4e487b7100000000000000000000000000000000000000000000000000000000600052601160045260246000fd5b7f4e487b7100000000000000000000000000000000000000000000000000000000600052603260045260246000fd5b7f4e487b7100000000000000000000000000000000000000000000000000000000600052604160045260246000fd5b600080fd5b600080fd5b600080fd5b600080fd5b6000601f19601f8301169050919050565b7f546865206e756d626572206f6620617070726f76616c73206d757374206d652060008201527f657175616c206f72206c657373207468616e20746865206c656e677468206f6660208201527f206f776e65727300000000000000000000000000000000000000000000000000604082015250565b62000593816200039f565b81146200059f57600080fd5b50565b620005ad81620003d3565b8114620005b957600080fd5b50565b610fc780620005cc6000396000f3fe6080604052600436106100915760003560e01c80637b8e8895116100595780637b8e88951461016e57806384a37273146101ad5780638596ccc7146101d65780639ace38c214610201578063a2f09dfa1461024457610091565b8063025e7c2714610096578063242232d1146100d357806329ba8780146100fc5780632a698f5e1461011857806352b422b714610143575b600080fd5b3480156100a257600080fd5b506100bd60048036038101906100b89190610a51565b61024e565b6040516100ca9190610ba9565b60405180910390f35b3480156100df57600080fd5b506100fa60048036038101906100f59190610a51565b61028d565b005b61011660048036038101906101119190610a7e565b610492565b005b34801561012457600080fd5b5061012d610716565b60405161013a9190610d0a565b60405180910390f35b34801561014f57600080fd5b5061015861071c565b6040516101659190610d0a565b60405180910390f35b34801561017a57600080fd5b5061019560048036038101906101909190610a51565b610722565b6040516101a493929190610c33565b60405180910390f35b3480156101b957600080fd5b506101d460048036038101906101cf9190610a11565b61076c565b005b3480156101e257600080fd5b506101eb610885565b6040516101f89190610d0a565b60405180910390f35b34801561020d57600080fd5b5061022860048036038101906102239190610a51565b61088b565b60405161023b9796959493929190610bc4565b60405180910390f35b61024c610927565b005b6000818154811061025e57600080fd5b906000526020600020016000915054906101000a900473ffffffffffffffffffffffffffffffffffffffff1681565b3360011515600160008373ffffffffffffffffffffffffffffffffffffffff1673ffffffffffffffffffffffffffffffffffffffff16815260200190815260200160002060009054906101000a900460ff16151514610321576040517f08c379a000000000000000000000000000000000000000000000000000000000815260040161031890610caa565b60405180910390fd5b3382600015156003600083815260200190815260200160002060040160008473ffffffffffffffffffffffffffffffffffffffff1673ffffffffffffffffffffffffffffffffffffffff16815260200190815260200160002060009054906101000a900460ff161515146103ca576040517f08c379a00000000000000000000000000000000000000000000000000000000081526004016103c190610c8a565b60405180910390fd5b60016003600086815260200190815260200160002060040160003373ffffffffffffffffffffffffffffffffffffffff1673ffffffffffffffffffffffffffffffffffffffff16815260200190815260200160002060006101000a81548160ff02191690831515021790555060036000858152602001908152602001600020600501600081548092919061045d90610d90565b919050555060025460036000868152602001908152602001600020600501541061048c5761048b8433610492565b5b50505050565b8060011515600160008373ffffffffffffffffffffffffffffffffffffffff1673ffffffffffffffffffffffffffffffffffffffff16815260200190815260200160002060009054906101000a900460ff16151514610526576040517f08c379a000000000000000000000000000000000000000000000000000000000815260040161051d90610caa565b60405180910390fd5b6003600084815260200190815260200160002060020154600047905080821115610585576040517f08c379a000000000000000000000000000000000000000000000000000000000815260040161057c90610cca565b60405180910390fd5b84600254600360008381526020019081526020016000206005015410156105e1576040517f08c379a00000000000000000000000000000000000000000000000000000000081526004016105d890610cea565b60405180910390fd5b85600015156003600083815260200190815260200160002060060160019054906101000a900460ff1615151461064c576040517f08c379a000000000000000000000000000000000000000000000000000000000815260040161064390610c6a565b60405180910390fd5b600060036000898152602001908152602001600020905060018160060160006101000a81548160ff02191690831515021790555060018160060160016101000a81548160ff0219169083151502179055508060010160009054906101000a900473ffffffffffffffffffffffffffffffffffffffff1673ffffffffffffffffffffffffffffffffffffffff166108fc82600201549081150290604051600060405180830381858888f1935050505015801561070b573d6000803e3d6000fd5b505050505050505050565b60065481565b60045481565b60056020528060005260406000206000915090508060000160009054906101000a900473ffffffffffffffffffffffffffffffffffffffff16908060010154908060020154905083565b806000479050808211156107b5576040517f08c379a00000000000000000000000000000000000000000000000000000000081526004016107ac90610cca565b60405180910390fd5b60006003600060045481526020019081526020016000209050338160000160006101000a81548173ffffffffffffffffffffffffffffffffffffffff021916908373ffffffffffffffffffffffffffffffffffffffff160217905550848160010160006101000a81548173ffffffffffffffffffffffffffffffffffffffff021916908373ffffffffffffffffffffffffffffffffffffffff1602179055508381600201819055504281600301819055506004600081548092919061087990610d90565b91905055505050505050565b60025481565b60036020528060005260406000206000915090508060000160009054906101000a900473ffffffffffffffffffffffffffffffffffffffff16908060010160009054906101000a900473ffffffffffffffffffffffffffffffffffffffff16908060020154908060030154908060050154908060060160009054906101000a900460ff16908060060160019054906101000a900460ff16905087565b34600560006006548152602001908152602001600020600101819055503360056000600654815260200190815260200160002060000160006101000a81548173ffffffffffffffffffffffffffffffffffffffff021916908373ffffffffffffffffffffffffffffffffffffffff1602179055504260056000600654815260200190815260200160002060020181905550600660008154809291906109cb90610d90565b9190505550565b6000813590506109e181610f4c565b92915050565b6000813590506109f681610f63565b92915050565b600081359050610a0b81610f7a565b92915050565b60008060408385031215610a2857610a27610e08565b5b6000610a36858286016109e7565b9250506020610a47858286016109fc565b9150509250929050565b600060208284031215610a6757610a66610e08565b5b6000610a75848285016109fc565b91505092915050565b60008060408385031215610a9557610a94610e08565b5b6000610aa3858286016109fc565b9250506020610ab4858286016109d2565b9150509250929050565b610ac781610d48565b82525050565b610ad681610d36565b82525050565b610ae581610d5a565b82525050565b6000610af8601e83610d25565b9150610b0382610e0d565b602082019050919050565b6000610b1b602483610d25565b9150610b2682610e36565b604082019050919050565b6000610b3e601d83610d25565b9150610b4982610e85565b602082019050919050565b6000610b61602d83610d25565b9150610b6c82610eae565b604082019050919050565b6000610b84602383610d25565b9150610b8f82610efd565b604082019050919050565b610ba381610d86565b82525050565b6000602082019050610bbe6000830184610acd565b92915050565b600060e082019050610bd9600083018a610acd565b610be66020830189610abe565b610bf36040830188610b9a565b610c006060830187610b9a565b610c0d6080830186610b9a565b610c1a60a0830185610adc565b610c2760c0830184610adc565b98975050505050505050565b6000606082019050610c486000830186610acd565b610c556020830185610b9a565b610c626040830184610b9a565b949350505050565b60006020820190508181036000830152610c8381610aeb565b9050919050565b60006020820190508181036000830152610ca381610b0e565b9050919050565b60006020820190508181036000830152610cc381610b31565b9050919050565b60006020820190508181036000830152610ce381610b54565b9050919050565b60006020820190508181036000830152610d0381610b77565b9050919050565b6000602082019050610d1f6000830184610b9a565b92915050565b600082825260208201905092915050565b6000610d4182610d66565b9050919050565b6000610d5382610d66565b9050919050565b60008115159050919050565b600073ffffffffffffffffffffffffffffffffffffffff82169050919050565b6000819050919050565b6000610d9b82610d86565b91507fffffffffffffffffffffffffffffffffffffffffffffffffffffffffffffffff821415610dce57610dcd610dd9565b5b600182019050919050565b7f4e487b7100000000000000000000000000000000000000000000000000000000600052601160045260246000fd5b600080fd5b7f446f75626c65207370656e64696e67206973206e6f7420616c6c6f7765640000600082015250565b7f596f7520616c726561647920617070726f76656420746865207472616e73616360008201527f74696f6e00000000000000000000000000000000000000000000000000000000602082015250565b7f596f7520617265206e6f74206f6e65206f6620746865206f776e657273000000600082015250565b7f5472616e63616374696f6e20616d6d6f756e74206578636565647320636f6e7460008201527f72616374732062616c616e636500000000000000000000000000000000000000602082015250565b7f4e656365737361727920617070726f76616c7320617265206e6f74207265616360008201527f6865640000000000000000000000000000000000000000000000000000000000602082015250565b610f5581610d36565b8114610f6057600080fd5b50565b610f6c81610d48565b8114610f7757600080fd5b50565b610f8381610d86565b8114610f8e57600080fd5b5056fea2646970667358221220b41b50720460fff001d29b590d04ef8959af3b99781409d49e18dd978c246de264736f6c63430008060033",
  "immutableReferences": {},
  "source": "// SPDX-License-Identifier: MIT\n\npragma solidity ^0.8.0;\n\nimport \"./MultipleOwners.sol\";\n\ncontract MultiSigWallet is MultipleOwners {\n    uint256 public necessaryApprovals;\n\n    mapping(uint256 => Transaction) public transactions;\n    uint256 public currentTransactionId;\n\n    mapping(uint256 => Fund) public funds;\n    uint256 public currentFundId;\n\n    struct Fund {\n        address from;\n        uint256 value;\n        uint256 timestamp;\n    }\n\n    struct Transaction {\n        address from;\n        address payable to;\n        uint256 ammount;\n        uint256 timestamp;\n        mapping(address => bool) hasApproved;\n        uint256 approvalCount;\n        bool isApproved;\n        bool isProccesed;\n    }\n\n    modifier contructorGuard(\n        address[] memory _owners,\n        uint256 _necessaryApprovals\n    ) {\n        require(\n            _owners.length >= _necessaryApprovals,\n            \"The number of approvals must me equal or less than the length of owners\"\n        );\n        _;\n    }\n\n    modifier singleApprovalGuard(address _sender, uint256 transactionId) {\n        require(\n            transactions[transactionId].hasApproved[_sender] == false,\n            \"You already approved the transaction\"\n        );\n        _;\n    }\n\n    modifier approvalGuard(uint256 _transactionId) {\n        require(\n            transactions[_transactionId].approvalCount >= necessaryApprovals,\n            \"Necessary approvals are not reached\"\n        );\n        _;\n    }\n\n    modifier proccessedGuard(uint256 _transactionId) {\n        require(\n            transactions[_transactionId].isProccesed == false,\n            \"Double spending is not allowed\"\n        );\n        _;\n    }\n\n    modifier balanceGuard(uint256 _amount) {\n        uint256 contractBalance = address(this).balance;\n        require(\n            _amount <= contractBalance,\n            \"Trancaction ammount exceeds contracts balance\"\n        );\n        _;\n    }\n\n    constructor(address[] memory _owners, uint256 _necessaryApprovals)\n    MultipleOwners(_owners)\n    contructorGuard(_owners, _necessaryApprovals)\n    {\n        necessaryApprovals = _necessaryApprovals;\n    }\n\n    function addTransaction(address payable _to, uint256 _ammount)\n    public\n    balanceGuard(_ammount)\n    {\n        Transaction storage transaction = transactions[currentTransactionId];\n\n        transaction.from = msg.sender;\n        transaction.to = _to;\n        transaction.ammount = _ammount;\n        transaction.timestamp = block.timestamp;\n\n        currentTransactionId++;\n    }\n\n    function approveTransaction(uint256 _transactionId)\n    public\n    onlyOwner(msg.sender)\n    singleApprovalGuard(msg.sender, _transactionId)\n    {\n        transactions[_transactionId].hasApproved[msg.sender] = true;\n        transactions[_transactionId].approvalCount++;\n\n        if (transactions[_transactionId].approvalCount >= necessaryApprovals) {\n            executeTransaction(_transactionId, msg.sender);\n        }\n    }\n\n    function executeTransaction(uint256 _transactionId, address _sender)\n    public\n    payable\n    onlyOwner(_sender)\n    balanceGuard(transactions[_transactionId].ammount)\n    approvalGuard(_transactionId)\n    proccessedGuard(_transactionId)\n    {\n        Transaction storage transaction = transactions[_transactionId];\n\n        transaction.isApproved = true;\n        transaction.isProccesed = true;\n        transaction.to.transfer(transaction.ammount);\n    }\n\n    function addFund() payable public {\n        funds[currentFundId].value = msg.value;\n        funds[currentFundId].from = msg.sender;\n        funds[currentFundId].timestamp = block.timestamp;\n        currentFundId++;\n    }\n}\n",
  "sourcePath": "/Users/alexplutta/Dev/BC/MultiSigWallet/contracts/MultiSigWallet.sol",
  "compiler": {
    "name": "solc",
    "version": "0.8.6+commit.11564f7e.Emscripten.clang"
  },
  "schemaVersion": "3.4.1",
  "updatedAt": "2021-07-21T12:47:43.860Z",
  "devdoc": {
    "kind": "dev",
    "methods": {},
    "version": 1
  },
  "userdoc": {
    "kind": "user",
    "methods": {},
    "version": 1
  }
}