{
  "contractName": "MultiSigWallet",
  "abi": [
    {
      "inputs": [
        {
          "internalType": "address[]",
          "name": "_owners",
          "type": "address[]"
        },
        {
          "internalType": "uint256",
          "name": "_necessaryApprovals",
          "type": "uint256"
        }
      ],
      "stateMutability": "nonpayable",
      "type": "constructor"
    },
    {
      "anonymous": false,
      "inputs": [],
      "name": "TransactionAdded",
      "type": "event"
    },
    {
      "anonymous": false,
      "inputs": [],
      "name": "TransactionApproved",
      "type": "event"
    },
    {
      "inputs": [],
      "name": "currentFundId",
      "outputs": [
        {
          "internalType": "uint256",
          "name": "",
          "type": "uint256"
        }
      ],
      "stateMutability": "view",
      "type": "function"
    },
    {
      "inputs": [],
      "name": "currentTransactionId",
      "outputs": [
        {
          "internalType": "uint256",
          "name": "",
          "type": "uint256"
        }
      ],
      "stateMutability": "view",
      "type": "function"
    },
    {
      "inputs": [
        {
          "internalType": "uint256",
          "name": "",
          "type": "uint256"
        }
      ],
      "name": "funds",
      "outputs": [
        {
          "internalType": "address",
          "name": "from",
          "type": "address"
        },
        {
          "internalType": "uint256",
          "name": "value",
          "type": "uint256"
        },
        {
          "internalType": "uint256",
          "name": "timestamp",
          "type": "uint256"
        }
      ],
      "stateMutability": "view",
      "type": "function"
    },
    {
      "inputs": [],
      "name": "necessaryApprovals",
      "outputs": [
        {
          "internalType": "uint256",
          "name": "",
          "type": "uint256"
        }
      ],
      "stateMutability": "view",
      "type": "function"
    },
    {
      "inputs": [
        {
          "internalType": "uint256",
          "name": "",
          "type": "uint256"
        }
      ],
      "name": "owners",
      "outputs": [
        {
          "internalType": "address",
          "name": "",
          "type": "address"
        }
      ],
      "stateMutability": "view",
      "type": "function"
    },
    {
      "inputs": [
        {
          "internalType": "uint256",
          "name": "",
          "type": "uint256"
        }
      ],
      "name": "transactions",
      "outputs": [
        {
          "internalType": "address",
          "name": "from",
          "type": "address"
        },
        {
          "internalType": "address payable",
          "name": "to",
          "type": "address"
        },
        {
          "internalType": "uint256",
          "name": "amount",
          "type": "uint256"
        },
        {
          "internalType": "uint256",
          "name": "timestamp",
          "type": "uint256"
        },
        {
          "internalType": "uint256",
          "name": "approvalCount",
          "type": "uint256"
        },
        {
          "internalType": "bool",
          "name": "isApproved",
          "type": "bool"
        },
        {
          "internalType": "bool",
          "name": "isProcessed",
          "type": "bool"
        }
      ],
      "stateMutability": "view",
      "type": "function"
    },
    {
      "inputs": [
        {
          "internalType": "address payable",
          "name": "_to",
          "type": "address"
        },
        {
          "internalType": "uint256",
          "name": "_amount",
          "type": "uint256"
        }
      ],
      "name": "addTransaction",
      "outputs": [],
      "stateMutability": "nonpayable",
      "type": "function"
    },
    {
      "inputs": [
        {
          "internalType": "uint256",
          "name": "_transactionId",
          "type": "uint256"
        }
      ],
      "name": "approveTransaction",
      "outputs": [],
      "stateMutability": "nonpayable",
      "type": "function"
    },
    {
      "inputs": [
        {
          "internalType": "uint256",
          "name": "_transactionId",
          "type": "uint256"
        },
        {
          "internalType": "address",
          "name": "_sender",
          "type": "address"
        }
      ],
      "name": "executeTransaction",
      "outputs": [],
      "stateMutability": "payable",
      "type": "function"
    },
    {
      "inputs": [],
      "name": "addFund",
      "outputs": [],
      "stateMutability": "payable",
      "type": "function"
    }
  ],
  "bytecode": "0x60806040523480156200001157600080fd5b50604051620015e4380380620015e48339818101604052810190620000379190620003d4565b8160005b81518110156200014f5760008282815181106200005d576200005c6200043a565b5b60200260200101519080600181540180825580915050600190039060005260206000200160009091909190916101000a81548173ffffffffffffffffffffffffffffffffffffffff021916908373ffffffffffffffffffffffffffffffffffffffff1602179055506001806000848481518110620000e057620000df6200043a565b5b602002602001015173ffffffffffffffffffffffffffffffffffffffff1673ffffffffffffffffffffffffffffffffffffffff16815260200190815260200160002060006101000a81548160ff0219169083151502179055508080620001469062000498565b9150506200003b565b5050818180825110156200019a576040517f08c379a0000000000000000000000000000000000000000000000000000000008152600401620001919062000593565b60405180910390fd5b8260028190555050505050620005b5565b6000604051905090565b600080fd5b600080fd5b600080fd5b6000601f19601f8301169050919050565b7f4e487b7100000000000000000000000000000000000000000000000000000000600052604160045260246000fd5b6200020f82620001c4565b810181811067ffffffffffffffff82111715620002315762000230620001d5565b5b80604052505050565b600062000246620001ab565b905062000254828262000204565b919050565b600067ffffffffffffffff821115620002775762000276620001d5565b5b602082029050602081019050919050565b600080fd5b600073ffffffffffffffffffffffffffffffffffffffff82169050919050565b6000620002ba826200028d565b9050919050565b620002cc81620002ad565b8114620002d857600080fd5b50565b600081519050620002ec81620002c1565b92915050565b600062000309620003038462000259565b6200023a565b905080838252602082019050602084028301858111156200032f576200032e62000288565b5b835b818110156200035c5780620003478882620002db565b84526020840193505060208101905062000331565b5050509392505050565b600082601f8301126200037e576200037d620001bf565b5b815162000390848260208601620002f2565b91505092915050565b6000819050919050565b620003ae8162000399565b8114620003ba57600080fd5b50565b600081519050620003ce81620003a3565b92915050565b60008060408385031215620003ee57620003ed620001b5565b5b600083015167ffffffffffffffff8111156200040f576200040e620001ba565b5b6200041d8582860162000366565b92505060206200043085828601620003bd565b9150509250929050565b7f4e487b7100000000000000000000000000000000000000000000000000000000600052603260045260246000fd5b7f4e487b7100000000000000000000000000000000000000000000000000000000600052601160045260246000fd5b6000620004a58262000399565b91507fffffffffffffffffffffffffffffffffffffffffffffffffffffffffffffffff821415620004db57620004da62000469565b5b600182019050919050565b600082825260208201905092915050565b7f546865206e756d626572206f6620617070726f76616c73206d757374206d652060008201527f657175616c206f72206c657373207468616e20746865206c656e677468206f6660208201527f206f776e65727300000000000000000000000000000000000000000000000000604082015250565b60006200057b604783620004e6565b91506200058882620004f7565b606082019050919050565b60006020820190508181036000830152620005ae816200056c565b9050919050565b61101f80620005c56000396000f3fe6080604052600436106100915760003560e01c80637b8e8895116100595780637b8e88951461016e57806384a37273146101ad5780638596ccc7146101d65780639ace38c214610201578063a2f09dfa1461024457610091565b8063025e7c2714610096578063242232d1146100d357806329ba8780146100fc5780632a698f5e1461011857806352b422b714610143575b600080fd5b3480156100a257600080fd5b506100bd60048036038101906100b89190610a65565b61024e565b6040516100ca9190610ad3565b60405180910390f35b3480156100df57600080fd5b506100fa60048036038101906100f59190610a65565b61028d565b005b61011660048036038101906101119190610b1a565b6104be565b005b34801561012457600080fd5b5061012d610742565b60405161013a9190610b69565b60405180910390f35b34801561014f57600080fd5b50610158610748565b6040516101659190610b69565b60405180910390f35b34801561017a57600080fd5b5061019560048036038101906101909190610a65565b61074e565b6040516101a493929190610b84565b60405180910390f35b3480156101b957600080fd5b506101d460048036038101906101cf9190610bf9565b610798565b005b3480156101e257600080fd5b506101eb6108dd565b6040516101f89190610b69565b60405180910390f35b34801561020d57600080fd5b5061022860048036038101906102239190610a65565b6108e3565b60405161023b9796959493929190610c63565b60405180910390f35b61024c61097f565b005b6000818154811061025e57600080fd5b906000526020600020016000915054906101000a900473ffffffffffffffffffffffffffffffffffffffff1681565b3360011515600160008373ffffffffffffffffffffffffffffffffffffffff1673ffffffffffffffffffffffffffffffffffffffff16815260200190815260200160002060009054906101000a900460ff16151514610321576040517f08c379a000000000000000000000000000000000000000000000000000000000815260040161031890610d2f565b60405180910390fd5b3382600015156003600083815260200190815260200160002060040160008473ffffffffffffffffffffffffffffffffffffffff1673ffffffffffffffffffffffffffffffffffffffff16815260200190815260200160002060009054906101000a900460ff161515146103ca576040517f08c379a00000000000000000000000000000000000000000000000000000000081526004016103c190610dc1565b60405180910390fd5b60016003600086815260200190815260200160002060040160003373ffffffffffffffffffffffffffffffffffffffff1673ffffffffffffffffffffffffffffffffffffffff16815260200190815260200160002060006101000a81548160ff02191690831515021790555060036000858152602001908152602001600020600501600081548092919061045d90610e10565b919050555060025460036000868152602001908152602001600020600501541061048c5761048b84336104be565b5b7f791d1b6706766071f23c458b8ce7cdc21b5865086aa4ba0f23eb5f28fb3ce39b60405160405180910390a150505050565b8060011515600160008373ffffffffffffffffffffffffffffffffffffffff1673ffffffffffffffffffffffffffffffffffffffff16815260200190815260200160002060009054906101000a900460ff16151514610552576040517f08c379a000000000000000000000000000000000000000000000000000000000815260040161054990610d2f565b60405180910390fd5b60036000848152602001908152602001600020600201546000479050808211156105b1576040517f08c379a00000000000000000000000000000000000000000000000000000000081526004016105a890610ecb565b60405180910390fd5b846002546003600083815260200190815260200160002060050154101561060d576040517f08c379a000000000000000000000000000000000000000000000000000000000815260040161060490610f5d565b60405180910390fd5b85600015156003600083815260200190815260200160002060060160019054906101000a900460ff16151514610678576040517f08c379a000000000000000000000000000000000000000000000000000000000815260040161066f90610fc9565b60405180910390fd5b600060036000898152602001908152602001600020905060018160060160006101000a81548160ff02191690831515021790555060018160060160016101000a81548160ff0219169083151502179055508060010160009054906101000a900473ffffffffffffffffffffffffffffffffffffffff1673ffffffffffffffffffffffffffffffffffffffff166108fc82600201549081150290604051600060405180830381858888f19350505050158015610737573d6000803e3d6000fd5b505050505050505050565b60065481565b60045481565b60056020528060005260406000206000915090508060000160009054906101000a900473ffffffffffffffffffffffffffffffffffffffff16908060010154908060020154905083565b806000479050808211156107e1576040517f08c379a00000000000000000000000000000000000000000000000000000000081526004016107d890610ecb565b60405180910390fd5b60006003600060045481526020019081526020016000209050338160000160006101000a81548173ffffffffffffffffffffffffffffffffffffffff021916908373ffffffffffffffffffffffffffffffffffffffff160217905550848160010160006101000a81548173ffffffffffffffffffffffffffffffffffffffff021916908373ffffffffffffffffffffffffffffffffffffffff160217905550838160020181905550428160030181905550600460008154809291906108a590610e10565b91905055507f365467a2bbbe7f515555b933750a920d7eae1ed3803da92fbafb635addfc3c1e60405160405180910390a15050505050565b60025481565b60036020528060005260406000206000915090508060000160009054906101000a900473ffffffffffffffffffffffffffffffffffffffff16908060010160009054906101000a900473ffffffffffffffffffffffffffffffffffffffff16908060020154908060030154908060050154908060060160009054906101000a900460ff16908060060160019054906101000a900460ff16905087565b34600560006006548152602001908152602001600020600101819055503360056000600654815260200190815260200160002060000160006101000a81548173ffffffffffffffffffffffffffffffffffffffff021916908373ffffffffffffffffffffffffffffffffffffffff160217905550426005600060065481526020019081526020016000206002018190555060066000815480929190610a2390610e10565b9190505550565b600080fd5b6000819050919050565b610a4281610a2f565b8114610a4d57600080fd5b50565b600081359050610a5f81610a39565b92915050565b600060208284031215610a7b57610a7a610a2a565b5b6000610a8984828501610a50565b91505092915050565b600073ffffffffffffffffffffffffffffffffffffffff82169050919050565b6000610abd82610a92565b9050919050565b610acd81610ab2565b82525050565b6000602082019050610ae86000830184610ac4565b92915050565b610af781610ab2565b8114610b0257600080fd5b50565b600081359050610b1481610aee565b92915050565b60008060408385031215610b3157610b30610a2a565b5b6000610b3f85828601610a50565b9250506020610b5085828601610b05565b9150509250929050565b610b6381610a2f565b82525050565b6000602082019050610b7e6000830184610b5a565b92915050565b6000606082019050610b996000830186610ac4565b610ba66020830185610b5a565b610bb36040830184610b5a565b949350505050565b6000610bc682610a92565b9050919050565b610bd681610bbb565b8114610be157600080fd5b50565b600081359050610bf381610bcd565b92915050565b60008060408385031215610c1057610c0f610a2a565b5b6000610c1e85828601610be4565b9250506020610c2f85828601610a50565b9150509250929050565b610c4281610bbb565b82525050565b60008115159050919050565b610c5d81610c48565b82525050565b600060e082019050610c78600083018a610ac4565b610c856020830189610c39565b610c926040830188610b5a565b610c9f6060830187610b5a565b610cac6080830186610b5a565b610cb960a0830185610c54565b610cc660c0830184610c54565b98975050505050505050565b600082825260208201905092915050565b7f596f7520617265206e6f74206f6e65206f6620746865206f776e657273000000600082015250565b6000610d19601d83610cd2565b9150610d2482610ce3565b602082019050919050565b60006020820190508181036000830152610d4881610d0c565b9050919050565b7f596f7520616c726561647920617070726f76656420746865207472616e73616360008201527f74696f6e00000000000000000000000000000000000000000000000000000000602082015250565b6000610dab602483610cd2565b9150610db682610d4f565b604082019050919050565b60006020820190508181036000830152610dda81610d9e565b9050919050565b7f4e487b7100000000000000000000000000000000000000000000000000000000600052601160045260246000fd5b6000610e1b82610a2f565b91507fffffffffffffffffffffffffffffffffffffffffffffffffffffffffffffffff821415610e4e57610e4d610de1565b5b600182019050919050565b7f5472616e73616374696f6e20616d6f756e74206578636565647320636f6e747260008201527f616374732062616c616e63650000000000000000000000000000000000000000602082015250565b6000610eb5602c83610cd2565b9150610ec082610e59565b604082019050919050565b60006020820190508181036000830152610ee481610ea8565b9050919050565b7f4e656365737361727920617070726f76616c7320617265206e6f74207265616360008201527f6865640000000000000000000000000000000000000000000000000000000000602082015250565b6000610f47602383610cd2565b9150610f5282610eeb565b604082019050919050565b60006020820190508181036000830152610f7681610f3a565b9050919050565b7f446f75626c65207370656e64696e67206973206e6f7420616c6c6f7765640000600082015250565b6000610fb3601e83610cd2565b9150610fbe82610f7d565b602082019050919050565b60006020820190508181036000830152610fe281610fa6565b905091905056fea2646970667358221220f899408e44a122ea9a55a7d1d35071f69ecaebabd5c37e6016f1cbb9c6798b9f64736f6c63430008090033",
  "immutableReferences": {},
  "source": "// SPDX-License-Identifier: MIT\n\npragma solidity ^0.8.0;\n\nimport \"./MultipleOwners.sol\";\n\ncontract MultiSigWallet is MultipleOwners {\n    uint256 public necessaryApprovals;\n\n    mapping(uint256 => Transaction) public transactions;\n    uint256 public currentTransactionId;\n\n    mapping(uint256 => Fund) public funds;\n    uint256 public currentFundId;\n\n\n    struct Fund {\n        address from;\n        uint256 value;\n        uint256 timestamp;\n    }\n\n    struct Transaction {\n        address from;\n        address payable to;\n        uint256 amount;\n        uint256 timestamp;\n        mapping(address => bool) hasApproved;\n        uint256 approvalCount;\n        bool isApproved;\n        bool isProcessed;\n    }\n\n    modifier constructorGuard(\n        address[] memory _owners,\n        uint256 _necessaryApprovals\n    ) {\n        require(\n            _owners.length >= _necessaryApprovals,\n            \"The number of approvals must me equal or less than the length of owners\"\n        );\n        _;\n    }\n\n    modifier singleApprovalGuard(address _sender, uint256 transactionId) {\n        require(\n            transactions[transactionId].hasApproved[_sender] == false,\n            \"You already approved the transaction\"\n        );\n        _;\n    }\n\n    modifier approvalGuard(uint256 _transactionId) {\n        require(\n            transactions[_transactionId].approvalCount >= necessaryApprovals,\n            \"Necessary approvals are not reached\"\n        );\n        _;\n    }\n\n    modifier processedGuard(uint256 _transactionId) {\n        require(\n            transactions[_transactionId].isProcessed == false,\n            \"Double spending is not allowed\"\n        );\n        _;\n    }\n\n    modifier balanceGuard(uint256 _amount) {\n        uint256 contractBalance = address(this).balance;\n        require(\n            _amount <= contractBalance,\n            \"Transaction amount exceeds contracts balance\"\n        );\n        _;\n    }\n\n    event TransactionAdded();\n    event TransactionApproved();\n\n\n    constructor(address[] memory _owners, uint256 _necessaryApprovals)\n    MultipleOwners(_owners)\n    constructorGuard(_owners, _necessaryApprovals)\n    {\n        necessaryApprovals = _necessaryApprovals;\n    }\n\n    function addTransaction(address payable _to, uint256 _amount)\n    public\n    balanceGuard(_amount)\n    {\n        Transaction storage transaction = transactions[currentTransactionId];\n\n        transaction.from = msg.sender;\n        transaction.to = _to;\n        transaction.amount = _amount;\n        transaction.timestamp = block.timestamp;\n\n        currentTransactionId++;\n\n        emit TransactionAdded();\n    }\n\n    function approveTransaction(uint256 _transactionId)\n    public\n    onlyOwner(msg.sender)\n    singleApprovalGuard(msg.sender, _transactionId)\n    {\n        transactions[_transactionId].hasApproved[msg.sender] = true;\n        transactions[_transactionId].approvalCount++;\n\n        if (transactions[_transactionId].approvalCount >= necessaryApprovals) {\n            executeTransaction(_transactionId, msg.sender);\n        }\n        emit TransactionApproved();\n    }\n\n    function executeTransaction(uint256 _transactionId, address _sender)\n    public\n    payable\n    onlyOwner(_sender)\n    balanceGuard(transactions[_transactionId].amount)\n    approvalGuard(_transactionId)\n    processedGuard(_transactionId)\n    {\n        Transaction storage transaction = transactions[_transactionId];\n\n        transaction.isApproved = true;\n        transaction.isProcessed = true;\n        transaction.to.transfer(transaction.amount);\n    }\n\n    function addFund() payable public {\n        funds[currentFundId].value = msg.value;\n        funds[currentFundId].from = msg.sender;\n        funds[currentFundId].timestamp = block.timestamp;\n        currentFundId++;\n    }\n\n\n}\n",
  "sourcePath": "/Users/alexplutta/Dev/BC/MultiSigWallet/contracts/MultiSigWallet.sol",
  "compiler": {
    "name": "solc",
    "version": "0.8.9+commit.e5eed63a.Emscripten.clang"
  },
  "schemaVersion": "3.4.1",
  "updatedAt": "2021-10-29T21:09:22.526Z",
  "devdoc": {
    "kind": "dev",
    "methods": {},
    "version": 1
  },
  "userdoc": {
    "kind": "user",
    "methods": {},
    "version": 1
  }
}